{
  "contractName": "DappTokenSale",
  "abi": [
    {
      "inputs": [
        {
          "internalType": "contract DappToken",
          "name": "_tokenContract",
          "type": "address"
        },
        {
          "internalType": "uint256",
          "name": "_tokenPrice",
          "type": "uint256"
        }
      ],
      "stateMutability": "nonpayable",
      "type": "constructor"
    },
    {
      "anonymous": false,
      "inputs": [
        {
          "indexed": false,
          "internalType": "address",
          "name": "_buyer",
          "type": "address"
        },
        {
          "indexed": false,
          "internalType": "uint256",
          "name": "_amount",
          "type": "uint256"
        }
      ],
      "name": "Sell",
      "type": "event"
    },
    {
      "inputs": [],
      "name": "tokenContract",
      "outputs": [
        {
          "internalType": "contract DappToken",
          "name": "",
          "type": "address"
        }
      ],
      "stateMutability": "view",
      "type": "function",
      "constant": true
    },
    {
      "inputs": [],
      "name": "tokenPrice",
      "outputs": [
        {
          "internalType": "uint256",
          "name": "",
          "type": "uint256"
        }
      ],
      "stateMutability": "view",
      "type": "function",
      "constant": true
    },
    {
      "inputs": [],
      "name": "tokensSold",
      "outputs": [
        {
          "internalType": "uint256",
          "name": "",
          "type": "uint256"
        }
      ],
      "stateMutability": "view",
      "type": "function",
      "constant": true
    },
    {
      "inputs": [],
      "name": "buyTokens",
      "outputs": [
        {
          "internalType": "bool",
          "name": "",
          "type": "bool"
        }
      ],
      "stateMutability": "payable",
      "type": "function",
      "payable": true
    },
    {
      "inputs": [],
      "name": "endSale",
      "outputs": [],
      "stateMutability": "nonpayable",
      "type": "function"
    }
  ],
  "bytecode": "0x6080604052600060035534801561001557600080fd5b506040516106953803806106958339818101604052604081101561003857600080fd5b810190808051906020019092919080519060200190929190505050336000806101000a81548173ffffffffffffffffffffffffffffffffffffffff021916908373ffffffffffffffffffffffffffffffffffffffff16021790555081600160006101000a81548173ffffffffffffffffffffffffffffffffffffffff021916908373ffffffffffffffffffffffffffffffffffffffff1602179055508060028190555050506105a9806100ec6000396000f3fe608060405260043610610067576000357c010000000000000000000000000000000000000000000000000000000090048063380d831b1461006c578063518ab2a81461008357806355a373d6146100ae5780637ff9b596146100ef578063d0febe4c1461011a575b600080fd5b34801561007857600080fd5b5061008161013a565b005b34801561008f57600080fd5b506100986103b5565b6040518082815260200191505060405180910390f35b3480156100ba57600080fd5b506100c36103bb565b604051808273ffffffffffffffffffffffffffffffffffffffff16815260200191505060405180910390f35b3480156100fb57600080fd5b506101046103e1565b6040518082815260200191505060405180910390f35b6101226103e7565b60405180821515815260200191505060405180910390f35b60008054906101000a900473ffffffffffffffffffffffffffffffffffffffff1673ffffffffffffffffffffffffffffffffffffffff163373ffffffffffffffffffffffffffffffffffffffff161461019257600080fd5b600160009054906101000a900473ffffffffffffffffffffffffffffffffffffffff1673ffffffffffffffffffffffffffffffffffffffff1663a9059cbb60008054906101000a900473ffffffffffffffffffffffffffffffffffffffff16600160009054906101000a900473ffffffffffffffffffffffffffffffffffffffff1673ffffffffffffffffffffffffffffffffffffffff166370a08231306040518263ffffffff167c0100000000000000000000000000000000000000000000000000000000028152600401808273ffffffffffffffffffffffffffffffffffffffff16815260200191505060206040518083038186803b15801561029657600080fd5b505afa1580156102aa573d6000803e3d6000fd5b505050506040513d60208110156102c057600080fd5b81019080805190602001909291905050506040518363ffffffff167c0100000000000000000000000000000000000000000000000000000000028152600401808373ffffffffffffffffffffffffffffffffffffffff16815260200182815260200192505050602060405180830381600087803b15801561034057600080fd5b505af1158015610354573d6000803e3d6000fd5b505050506040513d602081101561036a57600080fd5b81019080805190602001909291905050505060008054906101000a900473ffffffffffffffffffffffffffffffffffffffff1673ffffffffffffffffffffffffffffffffffffffff16ff5b60035481565b600160009054906101000a900473ffffffffffffffffffffffffffffffffffffffff1681565b60025481565b60008034905060006104046002548361055f90919063ffffffff16565b9050600160009054906101000a900473ffffffffffffffffffffffffffffffffffffffff1673ffffffffffffffffffffffffffffffffffffffff1663a9059cbb33836040518363ffffffff167c0100000000000000000000000000000000000000000000000000000000028152600401808373ffffffffffffffffffffffffffffffffffffffff16815260200182815260200192505050602060405180830381600087803b1580156104b557600080fd5b505af11580156104c9573d6000803e3d6000fd5b505050506040513d60208110156104df57600080fd5b810190808051906020019092919050505050806003600082825401925050819055507f5e5e995ce3133561afceaa51a9a154d5db228cd7525d34df5185582c18d3df093382604051808373ffffffffffffffffffffffffffffffffffffffff1681526020018281526020019250505060405180910390a160019250505090565b600081838161056a57fe5b0490509291505056fea2646970667358221220c7eea84bea069591c87a48db6424cef08b77018b7979a47391800d22965360ee64736f6c63430007000033",
  "immutableReferences": {},
  "source": "// \"SPDX-License-Identifier: UNLICENSED\"\npragma solidity ^0.7.0;\n\nimport \"./DappToken.sol\";\nimport \"./SafeMath.sol\";\n\n\ncontract DappTokenSale {\n    // Sale data\n    address payable admin;\n    DappToken public tokenContract;\n    uint256 public tokenPrice;\n    uint256 public tokensSold = 0;\n\n    // Initialisation\n    using SafeMath for uint256;\n    constructor(DappToken _tokenContract, uint256 _tokenPrice) {\n        admin = msg.sender;\n        tokenContract = _tokenContract;\n        tokenPrice = _tokenPrice;\n    }\n    event Sell(address _buyer, uint256 _amount);\n\n    // Sale methods\n    function buyTokens() public payable returns (bool){\n        uint256 paymentValue = msg.value;\n        uint256 tokensBought = paymentValue.div(tokenPrice);\n        tokenContract.transfer(msg.sender, tokensBought);\n        tokensSold += tokensBought;\n        emit Sell(msg.sender, tokensBought);\n        return true;\n    }\n\n    function endSale() public {\n        require(msg.sender == admin);\n        // Return unsold DAPP tokens to admin\n        tokenContract.transfer(admin, tokenContract.balanceOf(address(this)));\n\n        // Destroy this contract and give ETH to admin\n        selfdestruct(admin);\n    }\n\n}",
  "sourcePath": "/home/mark/Code/etherium-practicee/token_sale/contracts/DappTokenSale.sol",
  "compiler": {
    "name": "solc",
    "version": "0.7.0+commit.9e61f92b.Linux.g++"
  },
  "schemaVersion": "3.3.4",
  "updatedAt": "2021-04-01T09:58:29.542Z",
  "networkType": "ethereum",
  "devdoc": {
    "kind": "dev",
    "methods": {},
    "version": 1
  },
  "userdoc": {
    "kind": "user",
    "methods": {},
    "version": 1
  }
}